{
  "contractName": "MetaCoin",
  "abi": [
    {
      "inputs": [],
      "payable": false,
      "stateMutability": "nonpayable",
      "type": "constructor"
    },
    {
      "anonymous": false,
      "inputs": [
        {
          "indexed": true,
          "name": "_from",
          "type": "address"
        },
        {
          "indexed": true,
          "name": "_to",
          "type": "address"
        },
        {
          "indexed": false,
          "name": "_value",
          "type": "uint256"
        }
      ],
      "name": "Transfer",
      "type": "event"
    },
    {
      "constant": false,
      "inputs": [
        {
          "name": "receiver",
          "type": "address"
        },
        {
          "name": "amount",
          "type": "uint256"
        }
      ],
      "name": "sendCoin",
      "outputs": [
        {
          "name": "sufficient",
          "type": "bool"
        }
      ],
      "payable": false,
      "stateMutability": "nonpayable",
      "type": "function"
    },
    {
      "constant": true,
      "inputs": [
        {
          "name": "addr",
          "type": "address"
        }
      ],
      "name": "getBalanceInEth",
      "outputs": [
        {
          "name": "",
          "type": "uint256"
        }
      ],
      "payable": false,
      "stateMutability": "view",
      "type": "function"
    },
    {
      "constant": true,
      "inputs": [
        {
          "name": "addr",
          "type": "address"
        }
      ],
      "name": "getBalance",
      "outputs": [
        {
          "name": "",
          "type": "uint256"
        }
      ],
      "payable": false,
      "stateMutability": "view",
      "type": "function"
    }
  ],
  "bytecode": "0x608060405234801561001057600080fd5b506127106000803273ffffffffffffffffffffffffffffffffffffffff1673ffffffffffffffffffffffffffffffffffffffff168152602001908152602001600020819055506103fc806100656000396000f300608060405260043610610057576000357c0100000000000000000000000000000000000000000000000000000000900463ffffffff1680637bd703e81461005c57806390b98a11146100b3578063f8b2cb4f14610118575b600080fd5b34801561006857600080fd5b5061009d600480360381019080803573ffffffffffffffffffffffffffffffffffffffff16906020019092919050505061016f565b6040518082815260200191505060405180910390f35b3480156100bf57600080fd5b506100fe600480360381019080803573ffffffffffffffffffffffffffffffffffffffff1690602001909291908035906020019092919050505061022f565b604051808215151515815260200191505060405180910390f35b34801561012457600080fd5b50610159600480360381019080803573ffffffffffffffffffffffffffffffffffffffff169060200190929190505050610388565b6040518082815260200191505060405180910390f35b600073__ConvertLib____________________________6396e4ee3d61019484610388565b60026040518363ffffffff167c0100000000000000000000000000000000000000000000000000000000028152600401808381526020018281526020019250505060206040518083038186803b1580156101ed57600080fd5b505af4158015610201573d6000803e3d6000fd5b505050506040513d602081101561021757600080fd5b81019080805190602001909291905050509050919050565b6000816000803373ffffffffffffffffffffffffffffffffffffffff1673ffffffffffffffffffffffffffffffffffffffff1681526020019081526020016000205410156102805760009050610382565b816000803373ffffffffffffffffffffffffffffffffffffffff1673ffffffffffffffffffffffffffffffffffffffff16815260200190815260200160002060008282540392505081905550816000808573ffffffffffffffffffffffffffffffffffffffff1673ffffffffffffffffffffffffffffffffffffffff168152602001908152602001600020600082825401925050819055508273ffffffffffffffffffffffffffffffffffffffff163373ffffffffffffffffffffffffffffffffffffffff167fddf252ad1be2c89b69c2b068fc378daa952ba7f163c4a11628f55a4df523b3ef846040518082815260200191505060405180910390a3600190505b92915050565b60008060008373ffffffffffffffffffffffffffffffffffffffff1673ffffffffffffffffffffffffffffffffffffffff1681526020019081526020016000205490509190505600a165627a7a72305820b97dcde65b48c3d4dbb55491631b0b386f50ded15d23f378f4f1639e5fd14db40029",
  "source": "pragma solidity ^0.4.17;\n\nimport \"./ConvertLib.sol\";\n\n// This is just a simple example of a coin-like contract.  这是一个简单的仿币合约的例子\n// It is not standards compatible and cannot be expected to talk to other 它并不是标准的可兼容其他币或者token的合约\n// coin/token contracts. If you want to create a standards-compliant\n// token, see: https://github.com/ConsenSys/Tokens. Cheers!\n// MetaCoin的仿币的价格是以太币的一倍，所以是以以太币为标杆，通过智能合约发布的一个token,仿币\n\ncontract MetaCoin {\n\t// 创建了一个public状态变量，但是其类型更加复杂。该类型将一些address映射到无符号整数。\n\t// 由public关键字生成的访问函数，代码如下：\n\t// function balances(address _account) returns (uint balance) {\n\t//\treturn balances[_account];\n\t//}\n\tmapping (address => uint) balances;\n\t// 定义了一个映射类型变量balances，key为address类型，值为无符整型，应该用来存储每个账户的余额，可以存多个\n\n\t// 事件让轻客户端能高效的对变化做出反应\n\n\tevent Transfer(address indexed _from, address indexed _to, uint256 _value);\n\n\t// 这个构造函数的代码只有在合约创建时被运行,之后就无法调用  它会永远的存储一些信息  （例如：它会永久得存储合约创建者的地址）\n\t// 找到【tx.origin (address): 交易发送方地址】会返回的交易发送方的地址，也就是说合约实例创建时会默认为当前交易发送方的余额是10000，单位是仿币\n\tfunction MetaCoin() public {\n\t\t// tx.origin (address): 交易发送方地址\n\t\tbalances[tx.origin] = 10000;\n\t}\n\n\tfunction sendCoin(address receiver, uint amount) public returns(bool sufficient) {\n\t\t// 函数声明部分没有盲点，方法名，参数列表，函数可见性，返回值类型定义\n\t\t// msg（以及tx和block）是神奇的全局变量  它包含了一些可以被合约代码访问的属于区块链的属性  msg.sender总是存放着当前函数的外部调用者的地址\n\t\t// 信息的发送方 (当前调用)的余额没有要支付的总量多的时候  返回false(如果余额不足，则返回发送币失败)\n\t\tif (balances[msg.sender] < amount) return false;\n\t\t// 否则从发送者的余额中减去发送值，注意Solidity也有 '-=''+='运算符\n\t\tbalances[msg.sender] -= amount;\n\t\t// 在接收者的余额中加入发送值数量\n\t\tbalances[receiver] += amount; \n\t\tTransfer(msg.sender, receiver, amount);\n\t\treturn true;\n\t}\n\n\t// 关键字'public'可以使变量能从合约外部访问\n\t// 获取以太币余额  只读 \n\tfunction getBalanceInEth(address addr) public view returns(uint){\n\t\t// 调用了库中的方法\n\t\treturn ConvertLib.convert(getBalance(addr),2);\n\t}\n\n\t// 夺取当前账户中的仿币余额\n\tfunction getBalance(address addr) public view returns(uint) {\n\t\treturn balances[addr];\n\t}\n}\n",
  "sourcePath": "E:\\evm\\demo\\contracts\\MetaCoin.sol",
  "compiler": {
    "name": "solc",
    "version": "0.4.24+commit.e67f0147.Emscripten.clang"
  },
  "schemaVersion": "2.0.0",
  "updatedAt": "2018-06-27T03:02:31.443Z"
}