{
  "contractName": "Migrations",
  "abi": [
    {
      "constant": true,
      "inputs": [],
      "name": "last_completed_migration",
      "outputs": [
        {
          "name": "",
          "type": "uint256"
        }
      ],
      "payable": false,
      "stateMutability": "view",
      "type": "function"
    },
    {
      "constant": true,
      "inputs": [],
      "name": "owner",
      "outputs": [
        {
          "name": "",
          "type": "address"
        }
      ],
      "payable": false,
      "stateMutability": "view",
      "type": "function"
    },
    {
      "inputs": [],
      "payable": false,
      "stateMutability": "nonpayable",
      "type": "constructor"
    },
    {
      "constant": false,
      "inputs": [
        {
          "name": "completed",
          "type": "uint256"
        }
      ],
      "name": "setCompleted",
      "outputs": [],
      "payable": false,
      "stateMutability": "nonpayable",
      "type": "function"
    },
    {
      "constant": false,
      "inputs": [
        {
          "name": "new_address",
          "type": "address"
        }
      ],
      "name": "upgrade",
      "outputs": [],
      "payable": false,
      "stateMutability": "nonpayable",
      "type": "function"
    }
  ],
  "bytecode": "0x608060405234801561001057600080fd5b50336000806101000a81548173ffffffffffffffffffffffffffffffffffffffff021916908373ffffffffffffffffffffffffffffffffffffffff1602179055506102f8806100606000396000f300608060405260043610610062576000357c0100000000000000000000000000000000000000000000000000000000900463ffffffff1680630900f01014610067578063445df0ac146100aa5780638da5cb5b146100d5578063fdacd5761461012c575b600080fd5b34801561007357600080fd5b506100a8600480360381019080803573ffffffffffffffffffffffffffffffffffffffff169060200190929190505050610159565b005b3480156100b657600080fd5b506100bf610241565b6040518082815260200191505060405180910390f35b3480156100e157600080fd5b506100ea610247565b604051808273ffffffffffffffffffffffffffffffffffffffff1673ffffffffffffffffffffffffffffffffffffffff16815260200191505060405180910390f35b34801561013857600080fd5b506101576004803603810190808035906020019092919050505061026c565b005b60008060009054906101000a900473ffffffffffffffffffffffffffffffffffffffff1673ffffffffffffffffffffffffffffffffffffffff163373ffffffffffffffffffffffffffffffffffffffff16141561023d578190508073ffffffffffffffffffffffffffffffffffffffff1663fdacd5766001546040518263ffffffff167c010000000000000000000000000000000000000000000000000000000002815260040180828152602001915050600060405180830381600087803b15801561022457600080fd5b505af1158015610238573d6000803e3d6000fd5b505050505b5050565b60015481565b6000809054906101000a900473ffffffffffffffffffffffffffffffffffffffff1681565b6000809054906101000a900473ffffffffffffffffffffffffffffffffffffffff1673ffffffffffffffffffffffffffffffffffffffff163373ffffffffffffffffffffffffffffffffffffffff1614156102c957806001819055505b505600a165627a7a7230582091ba8f07072cadb4eb61a17b6a97aed46bab99695768a17864d5320ac028c1d50029",
  "source": "pragma solidity ^0.4.17;\n// 将之前运行移植的历史记录  记录到区块链上\ncontract Migrations {\n  // 这行代码声明了一个可公开访问的状态变量，类型为address。address类型的值大小为160bits，不支持任何算术操作。适用于存储合约的地址或者他人的公私匙。public关键字会自动为其修饰成访问函数。\n  // 没有public关键字的变量将无法被其他合约访问。另外只有本合约内的代码才能写入\n  // 自动生成的函数如下：‘function owner() returns (address) {return minter}’\n  address public owner;\n  // 有一个任意访问的全局变量，存储于storage的地址类型变量owner\n  // 有一个可以任意访问的全局变量，存储于storage的无符号整数类型的变量\n  uint public last_completed_migration;\n\n  // modifier的使用方法，可以自动改变函数的行为 假如给它预设一个条件，它会不断检查，一旦符合条件即可走预设分支。它可以影响当前合约以及派生合约\n  // 这里的方法体为'_;',这意味着如果owner调用了这个函数，函数会被执行，其他人调用会抛出一个异常\n  modifier restricted() {\n    if (msg.sender == owner) _;\n  }\n\n  function Migrations() public {\n    // 初始化将发送方赋值给owner保存\n    owner = msg.sender;\n  }\n\n  // restricted 受限制的 保密的  是方法名  在其下想增加该modifier功能的函数中，都使用了public restricted的方式来声明\n  function setCompleted(uint completed) public restricted {\n    last_completed_migration = completed;\n  }\n\n  // public是函数可见性修饰符，restricted是自定义的限制访问的modifier方法，他们都是关于函数使用限制方面的，可以看作一个括号将他俩括起来，占一个位置（public）\n  function upgrade(address new_address) public restricted {\n    Migrations upgraded = Migrations(new_address);\n    upgraded.setCompleted(last_completed_migration);\n  }\n}\n",
  "sourcePath": "E:\\evm\\demo\\contracts\\Migrations.sol",
  "compiler": {
    "name": "solc",
    "version": "0.4.24+commit.e67f0147.Emscripten.clang"
  },
  "schemaVersion": "2.0.0",
  "updatedAt": "2018-06-27T03:02:31.444Z"
}